{
  "_format": "hh-sol-artifact-1",
  "contractName": "RelayHub",
  "sourceName": "contracts/RelayHub.sol",
  "abi": [
    {
      "inputs": [],
      "stateMutability": "nonpayable",
      "type": "constructor"
    },
    {
      "anonymous": false,
      "inputs": [
        {
          "indexed": true,
          "internalType": "address",
          "name": "relayer",
          "type": "address"
        }
      ],
      "name": "RelayRegistered",
      "type": "event"
    },
    {
      "anonymous": false,
      "inputs": [
        {
          "indexed": true,
          "internalType": "address",
          "name": "relayer",
          "type": "address"
        }
      ],
      "name": "RelayUnregistered",
      "type": "event"
    },
    {
      "anonymous": false,
      "inputs": [
        {
          "indexed": true,
          "internalType": "address",
          "name": "relayer",
          "type": "address"
        },
        {
          "indexed": false,
          "internalType": "uint256",
          "name": "amount",
          "type": "uint256"
        }
      ],
      "name": "Staked",
      "type": "event"
    },
    {
      "inputs": [],
      "name": "owner",
      "outputs": [
        {
          "internalType": "address",
          "name": "",
          "type": "address"
        }
      ],
      "stateMutability": "view",
      "type": "function"
    },
    {
      "inputs": [],
      "name": "registerRelay",
      "outputs": [],
      "stateMutability": "nonpayable",
      "type": "function"
    },
    {
      "inputs": [
        {
          "internalType": "address",
          "name": "",
          "type": "address"
        }
      ],
      "name": "registeredRelays",
      "outputs": [
        {
          "internalType": "bool",
          "name": "",
          "type": "bool"
        }
      ],
      "stateMutability": "view",
      "type": "function"
    },
    {
      "inputs": [
        {
          "internalType": "uint256",
          "name": "amount",
          "type": "uint256"
        }
      ],
      "name": "stake",
      "outputs": [],
      "stateMutability": "payable",
      "type": "function"
    },
    {
      "inputs": [
        {
          "internalType": "address",
          "name": "",
          "type": "address"
        }
      ],
      "name": "stakes",
      "outputs": [
        {
          "internalType": "uint256",
          "name": "",
          "type": "uint256"
        }
      ],
      "stateMutability": "view",
      "type": "function"
    },
    {
      "inputs": [],
      "name": "unregisterRelay",
      "outputs": [],
      "stateMutability": "nonpayable",
      "type": "function"
    },
    {
      "stateMutability": "payable",
      "type": "receive"
    }
  ],
  "bytecode": "0x608060405234801561001057600080fd5b50336000806101000a81548173ffffffffffffffffffffffffffffffffffffffff021916908373ffffffffffffffffffffffffffffffffffffffff16021790555061084c806100606000396000f3fe6080604052600436106100595760003560e01c806316934fc4146100655780635f006a6a146100a25780638da5cb5b146100b9578063a694fc3a146100e4578063b8716df314610100578063c74774961461011757610060565b3661006057005b600080fd5b34801561007157600080fd5b5061008c60048036038101906100879190610544565b610154565b604051610099919061058a565b60405180910390f35b3480156100ae57600080fd5b506100b761016c565b005b3480156100c557600080fd5b506100ce61028b565b6040516100db91906105b4565b60405180910390f35b6100fe60048036038101906100f991906105fb565b6102af565b005b34801561010c57600080fd5b50610115610398565b005b34801561012357600080fd5b5061013e60048036038101906101399190610544565b6104c1565b60405161014b9190610643565b60405180910390f35b60016020528060005260406000206000915090505481565b6000600160003373ffffffffffffffffffffffffffffffffffffffff1673ffffffffffffffffffffffffffffffffffffffff16815260200190815260200160002054116101ee576040517f08c379a00000000000000000000000000000000000000000000000000000000081526004016101e5906106bb565b60405180910390fd5b6001600260003373ffffffffffffffffffffffffffffffffffffffff1673ffffffffffffffffffffffffffffffffffffffff16815260200190815260200160002060006101000a81548160ff0219169083151502179055503373ffffffffffffffffffffffffffffffffffffffff167f1e408e69214ed405a7b07231a01f62f41cefecd227b5631f61811dd0d13d174060405160405180910390a2565b60008054906101000a900473ffffffffffffffffffffffffffffffffffffffff1681565b8034146102f1576040517f08c379a00000000000000000000000000000000000000000000000000000000081526004016102e890610727565b60405180910390fd5b80600160003373ffffffffffffffffffffffffffffffffffffffff1673ffffffffffffffffffffffffffffffffffffffff16815260200190815260200160002060008282546103409190610776565b925050819055503373ffffffffffffffffffffffffffffffffffffffff167f9e71bc8eea02a63969f509818f2dafb9254532904319f9dbda79b67bd34a5f3d8260405161038d919061058a565b60405180910390a250565b600260003373ffffffffffffffffffffffffffffffffffffffff1673ffffffffffffffffffffffffffffffffffffffff16815260200190815260200160002060009054906101000a900460ff16610424576040517f08c379a000000000000000000000000000000000000000000000000000000000815260040161041b906107f6565b60405180910390fd5b6000600260003373ffffffffffffffffffffffffffffffffffffffff1673ffffffffffffffffffffffffffffffffffffffff16815260200190815260200160002060006101000a81548160ff0219169083151502179055503373ffffffffffffffffffffffffffffffffffffffff167f6fbadd9ae25e411d383e5c490240a17f4292b44435da18d4ca9b26cd9c12859a60405160405180910390a2565b60026020528060005260406000206000915054906101000a900460ff1681565b600080fd5b600073ffffffffffffffffffffffffffffffffffffffff82169050919050565b6000610511826104e6565b9050919050565b61052181610506565b811461052c57600080fd5b50565b60008135905061053e81610518565b92915050565b60006020828403121561055a576105596104e1565b5b60006105688482850161052f565b91505092915050565b6000819050919050565b61058481610571565b82525050565b600060208201905061059f600083018461057b565b92915050565b6105ae81610506565b82525050565b60006020820190506105c960008301846105a5565b92915050565b6105d881610571565b81146105e357600080fd5b50565b6000813590506105f5816105cf565b92915050565b600060208284031215610611576106106104e1565b5b600061061f848285016105e6565b91505092915050565b60008115159050919050565b61063d81610628565b82525050565b60006020820190506106586000830184610634565b92915050565b600082825260208201905092915050565b7f4e6f207374616b65000000000000000000000000000000000000000000000000600082015250565b60006106a560088361065e565b91506106b08261066f565b602082019050919050565b600060208201905081810360008301526106d481610698565b9050919050565b7f496e636f7272656374207374616b6520616d6f756e7400000000000000000000600082015250565b600061071160168361065e565b915061071c826106db565b602082019050919050565b6000602082019050818103600083015261074081610704565b9050919050565b7f4e487b7100000000000000000000000000000000000000000000000000000000600052601160045260246000fd5b600061078182610571565b915061078c83610571565b92508282019050808211156107a4576107a3610747565b5b92915050565b7f4e6f742072656769737465726564000000000000000000000000000000000000600082015250565b60006107e0600e8361065e565b91506107eb826107aa565b602082019050919050565b6000602082019050818103600083015261080f816107d3565b905091905056fea26469706673582212202e2b7d20a5454615745b0e88cacc16a0401e22c242ee25dd831c7602e5afe94164736f6c63430008140033",
  "linkReferences": {},
  "deployedLinkReferences": {}
}