{
  "_format": "hh-sol-artifact-1",
  "contractName": "MetaTransaction",
  "sourceName": "contracts/MetaTxs.sol",
  "abi": [
    {
      "inputs": [],
      "stateMutability": "nonpayable",
      "type": "constructor"
    },
    {
      "inputs": [
        {
          "internalType": "address",
          "name": "user",
          "type": "address"
        },
        {
          "internalType": "address",
          "name": "to",
          "type": "address"
        },
        {
          "internalType": "uint256",
          "name": "value",
          "type": "uint256"
        },
        {
          "internalType": "bytes",
          "name": "signature",
          "type": "bytes"
        }
      ],
      "name": "executeMetaTransaction",
      "outputs": [
        {
          "internalType": "bytes",
          "name": "",
          "type": "bytes"
        }
      ],
      "stateMutability": "nonpayable",
      "type": "function"
    },
    {
      "inputs": [
        {
          "internalType": "address",
          "name": "",
          "type": "address"
        }
      ],
      "name": "nonces",
      "outputs": [
        {
          "internalType": "uint256",
          "name": "",
          "type": "uint256"
        }
      ],
      "stateMutability": "view",
      "type": "function"
    },
    {
      "stateMutability": "payable",
      "type": "receive"
    }
  ],
  "bytecode": "0x608060405234801561001057600080fd5b507f8b73c3c69bb8fe3d512ecc4cf759cc79239f7b179b0ffacaa9a75d522b39400f6040518060400160405280600f81526020017f4d6574615472616e73616374696f6e0000000000000000000000000000000000815250805190602001206040518060400160405280600181526020017f31000000000000000000000000000000000000000000000000000000000000008152508051906020012046306040516020016100c2959493929190610156565b604051602081830303815290604052805190602001206000819055506101a9565b6000819050919050565b6100f6816100e3565b82525050565b6000819050919050565b61010f816100fc565b82525050565b600073ffffffffffffffffffffffffffffffffffffffff82169050919050565b600061014082610115565b9050919050565b61015081610135565b82525050565b600060a08201905061016b60008301886100ed565b61017860208301876100ed565b61018560408301866100ed565b6101926060830185610106565b61019f6080830184610147565b9695505050505050565b610b4980620001b96000396000f3fe60806040526004361061002d5760003560e01c80637ecebe0014610039578063ba6f0fb51461007657610034565b3661003457005b600080fd5b34801561004557600080fd5b50610060600480360381019061005b919061047f565b6100b3565b60405161006d91906104c5565b60405180910390f35b34801561008257600080fd5b5061009d60048036038101906100989190610652565b6100cb565b6040516100aa9190610754565b60405180910390f35b60016020528060005260406000206000915090505481565b60608473ffffffffffffffffffffffffffffffffffffffff163373ffffffffffffffffffffffffffffffffffffffff16148061010f575061010e8585858561025e565b5b61014e576040517f08c379a0000000000000000000000000000000000000000000000000000000008152600401610145906107d3565b60405180910390fd5b600160008673ffffffffffffffffffffffffffffffffffffffff1673ffffffffffffffffffffffffffffffffffffffff168152602001908152602001600020600081548092919061019e90610822565b91905055506000808573ffffffffffffffffffffffffffffffffffffffff16856040516101ca9061089b565b60006040518083038185875af1925050503d8060008114610207576040519150601f19603f3d011682016040523d82523d6000602084013e61020c565b606091505b509150915081610251576040517f08c379a0000000000000000000000000000000000000000000000000000000008152600401610248906108fc565b60405180910390fd5b8092505050949350505050565b6000806000547fab3ccec4504940d6d752bb7a0f3670935f952032613609e4ade2ffb799033892878787600160008c73ffffffffffffffffffffffffffffffffffffffff1673ffffffffffffffffffffffffffffffffffffffff168152602001908152602001600020546040516020016102dc959493929190610944565b60405160208183030381529060405280519060200120604051602001610303929190610a0f565b604051602081830303815290604052805190602001209050604183511461035f576040517f08c379a000000000000000000000000000000000000000000000000000000000815260040161035690610a92565b60405180910390fd5b60008060006020860151925060408601519150606086015160001a90506000600185838686604051600081526020016040526040516103a19493929190610ace565b6020604051602081039080840390855afa1580156103c3573d6000803e3d6000fd5b5050506020604051035190508973ffffffffffffffffffffffffffffffffffffffff168173ffffffffffffffffffffffffffffffffffffffff161495505050505050949350505050565b6000604051905090565b600080fd5b600080fd5b600073ffffffffffffffffffffffffffffffffffffffff82169050919050565b600061044c82610421565b9050919050565b61045c81610441565b811461046757600080fd5b50565b60008135905061047981610453565b92915050565b60006020828403121561049557610494610417565b5b60006104a38482850161046a565b91505092915050565b6000819050919050565b6104bf816104ac565b82525050565b60006020820190506104da60008301846104b6565b92915050565b6104e9816104ac565b81146104f457600080fd5b50565b600081359050610506816104e0565b92915050565b600080fd5b600080fd5b6000601f19601f8301169050919050565b7f4e487b7100000000000000000000000000000000000000000000000000000000600052604160045260246000fd5b61055f82610516565b810181811067ffffffffffffffff8211171561057e5761057d610527565b5b80604052505050565b600061059161040d565b905061059d8282610556565b919050565b600067ffffffffffffffff8211156105bd576105bc610527565b5b6105c682610516565b9050602081019050919050565b82818337600083830152505050565b60006105f56105f0846105a2565b610587565b90508281526020810184848401111561061157610610610511565b5b61061c8482856105d3565b509392505050565b600082601f8301126106395761063861050c565b5b81356106498482602086016105e2565b91505092915050565b6000806000806080858703121561066c5761066b610417565b5b600061067a8782880161046a565b945050602061068b8782880161046a565b935050604061069c878288016104f7565b925050606085013567ffffffffffffffff8111156106bd576106bc61041c565b5b6106c987828801610624565b91505092959194509250565b600081519050919050565b600082825260208201905092915050565b60005b8381101561070f5780820151818401526020810190506106f4565b60008484015250505050565b6000610726826106d5565b61073081856106e0565b93506107408185602086016106f1565b61074981610516565b840191505092915050565b6000602082019050818103600083015261076e818461071b565b905092915050565b600082825260208201905092915050565b7f496e76616c6964207369676e6174757265000000000000000000000000000000600082015250565b60006107bd601183610776565b91506107c882610787565b602082019050919050565b600060208201905081810360008301526107ec816107b0565b9050919050565b7f4e487b7100000000000000000000000000000000000000000000000000000000600052601160045260246000fd5b600061082d826104ac565b91507fffffffffffffffffffffffffffffffffffffffffffffffffffffffffffffffff820361085f5761085e6107f3565b5b600182019050919050565b600081905092915050565b50565b600061088560008361086a565b915061089082610875565b600082019050919050565b60006108a682610878565b9150819050919050565b7f43616c6c206661696c6564000000000000000000000000000000000000000000600082015250565b60006108e6600b83610776565b91506108f1826108b0565b602082019050919050565b60006020820190508181036000830152610915816108d9565b9050919050565b6000819050919050565b61092f8161091c565b82525050565b61093e81610441565b82525050565b600060a0820190506109596000830188610926565b6109666020830187610935565b6109736040830186610935565b61098060608301856104b6565b61098d60808301846104b6565b9695505050505050565b600081905092915050565b7f1901000000000000000000000000000000000000000000000000000000000000600082015250565b60006109d8600283610997565b91506109e3826109a2565b600282019050919050565b6000819050919050565b610a09610a048261091c565b6109ee565b82525050565b6000610a1a826109cb565b9150610a2682856109f8565b602082019150610a3682846109f8565b6020820191508190509392505050565b7f496e76616c6964207369676e6174757265206c656e6774680000000000000000600082015250565b6000610a7c601883610776565b9150610a8782610a46565b602082019050919050565b60006020820190508181036000830152610aab81610a6f565b9050919050565b600060ff82169050919050565b610ac881610ab2565b82525050565b6000608082019050610ae36000830187610926565b610af06020830186610abf565b610afd6040830185610926565b610b0a6060830184610926565b9594505050505056fea2646970667358221220a8d962fed4c8651afda3daaa0ff1c589cbaff40660cf27b3eb14fea2ef881c6764736f6c63430008140033",
  "linkReferences": {},
  "deployedLinkReferences": {}
}