{
  "_format": "hh-sol-artifact-1",
  "contractName": "MinimalForwarder",
  "sourceName": "contracts/MinimalForwarder.sol",
  "abi": [
    {
      "inputs": [],
      "stateMutability": "nonpayable",
      "type": "constructor"
    },
    {
      "inputs": [
        {
          "internalType": "address",
          "name": "from",
          "type": "address"
        },
        {
          "internalType": "address",
          "name": "to",
          "type": "address"
        },
        {
          "internalType": "uint256",
          "name": "value",
          "type": "uint256"
        },
        {
          "internalType": "uint256",
          "name": "gas",
          "type": "uint256"
        },
        {
          "internalType": "uint256",
          "name": "nonce",
          "type": "uint256"
        },
        {
          "internalType": "bytes",
          "name": "data",
          "type": "bytes"
        },
        {
          "internalType": "bytes",
          "name": "signature",
          "type": "bytes"
        }
      ],
      "name": "execute",
      "outputs": [
        {
          "internalType": "bool",
          "name": "",
          "type": "bool"
        },
        {
          "internalType": "bytes",
          "name": "",
          "type": "bytes"
        }
      ],
      "stateMutability": "nonpayable",
      "type": "function"
    },
    {
      "inputs": [
        {
          "internalType": "address",
          "name": "",
          "type": "address"
        }
      ],
      "name": "nonces",
      "outputs": [
        {
          "internalType": "uint256",
          "name": "",
          "type": "uint256"
        }
      ],
      "stateMutability": "view",
      "type": "function"
    },
    {
      "inputs": [
        {
          "internalType": "address",
          "name": "from",
          "type": "address"
        },
        {
          "internalType": "address",
          "name": "to",
          "type": "address"
        },
        {
          "internalType": "uint256",
          "name": "value",
          "type": "uint256"
        },
        {
          "internalType": "uint256",
          "name": "gas",
          "type": "uint256"
        },
        {
          "internalType": "uint256",
          "name": "nonce",
          "type": "uint256"
        },
        {
          "internalType": "bytes",
          "name": "data",
          "type": "bytes"
        },
        {
          "internalType": "bytes",
          "name": "signature",
          "type": "bytes"
        }
      ],
      "name": "verify",
      "outputs": [
        {
          "internalType": "bool",
          "name": "",
          "type": "bool"
        }
      ],
      "stateMutability": "view",
      "type": "function"
    }
  ],
  "bytecode": "0x60a060405234801561001057600080fd5b507f8b73c3c69bb8fe3d512ecc4cf759cc79239f7b179b0ffacaa9a75d522b39400f6040518060400160405280601081526020017f4d696e696d616c466f7277617264657200000000000000000000000000000000815250805190602001206040518060400160405280600181526020017f31000000000000000000000000000000000000000000000000000000000000008152508051906020012046306040516020016100c2959493929190610157565b60405160208183030381529060405280519060200120608081815250506101aa565b6000819050919050565b6100f7816100e4565b82525050565b6000819050919050565b610110816100fd565b82525050565b600073ffffffffffffffffffffffffffffffffffffffff82169050919050565b600061014182610116565b9050919050565b61015181610136565b82525050565b600060a08201905061016c60008301886100ee565b61017960208301876100ee565b61018660408301866100ee565b6101936060830185610107565b6101a06080830184610148565b9695505050505050565b60805161099a6101c56000396000610209015261099a6000f3fe608060405234801561001057600080fd5b50600436106100415760003560e01c806329a7b69b14610046578063507d8a27146100775780637ecebe00146100a7575b600080fd5b610060600480360381019061005b91906104c1565b6100d7565b60405161006e929190610635565b60405180910390f35b610091600480360381019061008c91906104c1565b610204565b60405161009e9190610665565b60405180910390f35b6100c160048036038101906100bc9190610680565b6102bb565b6040516100ce91906106bc565b60405180910390f35b600060606100ea89898989898989610204565b610129576040517f08c379a000000000000000000000000000000000000000000000000000000000815260040161012090610734565b60405180910390fd5b6000808a73ffffffffffffffffffffffffffffffffffffffff1673ffffffffffffffffffffffffffffffffffffffff168152602001908152602001600020600081548092919061017890610783565b91905055506000808973ffffffffffffffffffffffffffffffffffffffff16898990886040516101a89190610807565b600060405180830381858888f193505050503d80600081146101e6576040519150601f19603f3d011682016040523d82523d6000602084013e6101eb565b606091505b5091509150818193509350505097509795505050505050565b6000807f00000000000000000000000000000000000000000000000000000000000000007fdd8f4b70b0f4393e889bd39128a30628a78b61816a9eb8199759e7a349657e488a8a8a8a8a8a8051906020012060405160200161026c9796959493929190610846565b6040516020818303038152906040528051906020012060405160200161029392919061092d565b6040516020818303038152906040528051906020012090506001915050979650505050505050565b60006020528060005260406000206000915090505481565b6000604051905090565b600080fd5b600080fd5b600073ffffffffffffffffffffffffffffffffffffffff82169050919050565b6000610312826102e7565b9050919050565b61032281610307565b811461032d57600080fd5b50565b60008135905061033f81610319565b92915050565b6000819050919050565b61035881610345565b811461036357600080fd5b50565b6000813590506103758161034f565b92915050565b600080fd5b600080fd5b6000601f19601f8301169050919050565b7f4e487b7100000000000000000000000000000000000000000000000000000000600052604160045260246000fd5b6103ce82610385565b810181811067ffffffffffffffff821117156103ed576103ec610396565b5b80604052505050565b60006104006102d3565b905061040c82826103c5565b919050565b600067ffffffffffffffff82111561042c5761042b610396565b5b61043582610385565b9050602081019050919050565b82818337600083830152505050565b600061046461045f84610411565b6103f6565b9050828152602081018484840111156104805761047f610380565b5b61048b848285610442565b509392505050565b600082601f8301126104a8576104a761037b565b5b81356104b8848260208601610451565b91505092915050565b600080600080600080600060e0888a0312156104e0576104df6102dd565b5b60006104ee8a828b01610330565b97505060206104ff8a828b01610330565b96505060406105108a828b01610366565b95505060606105218a828b01610366565b94505060806105328a828b01610366565b93505060a088013567ffffffffffffffff811115610553576105526102e2565b5b61055f8a828b01610493565b92505060c088013567ffffffffffffffff8111156105805761057f6102e2565b5b61058c8a828b01610493565b91505092959891949750929550565b60008115159050919050565b6105b08161059b565b82525050565b600081519050919050565b600082825260208201905092915050565b60005b838110156105f05780820151818401526020810190506105d5565b60008484015250505050565b6000610607826105b6565b61061181856105c1565b93506106218185602086016105d2565b61062a81610385565b840191505092915050565b600060408201905061064a60008301856105a7565b818103602083015261065c81846105fc565b90509392505050565b600060208201905061067a60008301846105a7565b92915050565b600060208284031215610696576106956102dd565b5b60006106a484828501610330565b91505092915050565b6106b681610345565b82525050565b60006020820190506106d160008301846106ad565b92915050565b600082825260208201905092915050565b7f496e76616c6964207369676e6174757265000000000000000000000000000000600082015250565b600061071e6011836106d7565b9150610729826106e8565b602082019050919050565b6000602082019050818103600083015261074d81610711565b9050919050565b7f4e487b7100000000000000000000000000000000000000000000000000000000600052601160045260246000fd5b600061078e82610345565b91507fffffffffffffffffffffffffffffffffffffffffffffffffffffffffffffffff82036107c0576107bf610754565b5b600182019050919050565b600081905092915050565b60006107e1826105b6565b6107eb81856107cb565b93506107fb8185602086016105d2565b80840191505092915050565b600061081382846107d6565b915081905092915050565b6000819050919050565b6108318161081e565b82525050565b61084081610307565b82525050565b600060e08201905061085b600083018a610828565b6108686020830189610837565b6108756040830188610837565b61088260608301876106ad565b61088f60808301866106ad565b61089c60a08301856106ad565b6108a960c0830184610828565b98975050505050505050565b600081905092915050565b7f1901000000000000000000000000000000000000000000000000000000000000600082015250565b60006108f66002836108b5565b9150610901826108c0565b600282019050919050565b6000819050919050565b6109276109228261081e565b61090c565b82525050565b6000610938826108e9565b91506109448285610916565b6020820191506109548284610916565b602082019150819050939250505056fea264697066735822122033ef94837e87052eedfbf22c4d584e960e219f592437cc02156eab08e53535af64736f6c63430008140033",
  "linkReferences": {},
  "deployedLinkReferences": {}
}