{
  "_format": "hh-sol-artifact-1",
  "contractName": "AcceptEverythingPaymaster",
  "sourceName": "contracts/AcceptEverythingPaymaster.sol",
  "abi": [
    {
      "inputs": [
        {
          "internalType": "address",
          "name": "_relayHub",
          "type": "address"
        }
      ],
      "stateMutability": "nonpayable",
      "type": "constructor"
    },
    {
      "anonymous": false,
      "inputs": [
        {
          "indexed": true,
          "internalType": "address",
          "name": "previousOwner",
          "type": "address"
        },
        {
          "indexed": true,
          "internalType": "address",
          "name": "newOwner",
          "type": "address"
        }
      ],
      "name": "OwnershipTransferred",
      "type": "event"
    },
    {
      "inputs": [],
      "name": "balance",
      "outputs": [
        {
          "internalType": "uint256",
          "name": "",
          "type": "uint256"
        }
      ],
      "stateMutability": "view",
      "type": "function"
    },
    {
      "inputs": [],
      "name": "deposit",
      "outputs": [],
      "stateMutability": "payable",
      "type": "function"
    },
    {
      "inputs": [],
      "name": "owner",
      "outputs": [
        {
          "internalType": "address",
          "name": "",
          "type": "address"
        }
      ],
      "stateMutability": "view",
      "type": "function"
    },
    {
      "inputs": [
        {
          "internalType": "bytes",
          "name": "context",
          "type": "bytes"
        },
        {
          "internalType": "bool",
          "name": "success",
          "type": "bool"
        },
        {
          "internalType": "uint256",
          "name": "gasUse",
          "type": "uint256"
        },
        {
          "internalType": "bytes32",
          "name": "",
          "type": "bytes32"
        }
      ],
      "name": "postRelayedCall",
      "outputs": [],
      "stateMutability": "nonpayable",
      "type": "function"
    },
    {
      "inputs": [
        {
          "internalType": "bytes",
          "name": "context",
          "type": "bytes"
        }
      ],
      "name": "preRelayedCall",
      "outputs": [
        {
          "internalType": "bytes32",
          "name": "",
          "type": "bytes32"
        }
      ],
      "stateMutability": "view",
      "type": "function"
    },
    {
      "inputs": [],
      "name": "relayHub",
      "outputs": [
        {
          "internalType": "address",
          "name": "",
          "type": "address"
        }
      ],
      "stateMutability": "view",
      "type": "function"
    },
    {
      "inputs": [],
      "name": "renounceOwnership",
      "outputs": [],
      "stateMutability": "nonpayable",
      "type": "function"
    },
    {
      "inputs": [
        {
          "internalType": "address",
          "name": "newOwner",
          "type": "address"
        }
      ],
      "name": "transferOwnership",
      "outputs": [],
      "stateMutability": "nonpayable",
      "type": "function"
    },
    {
      "inputs": [
        {
          "internalType": "uint256",
          "name": "amount",
          "type": "uint256"
        }
      ],
      "name": "withdraw",
      "outputs": [],
      "stateMutability": "nonpayable",
      "type": "function"
    },
    {
      "stateMutability": "payable",
      "type": "receive"
    }
  ],
  "bytecode": "0x60806040523480156200001157600080fd5b5060405162000f1f38038062000f1f833981810160405281019062000037919062000336565b620000576200004b620000b060201b60201c565b620000b860201b60201c565b80600160006101000a81548173ffffffffffffffffffffffffffffffffffffffff021916908373ffffffffffffffffffffffffffffffffffffffff160217905550620000a9336200017c60201b60201c565b5062000483565b600033905090565b60008060009054906101000a900473ffffffffffffffffffffffffffffffffffffffff169050816000806101000a81548173ffffffffffffffffffffffffffffffffffffffff021916908373ffffffffffffffffffffffffffffffffffffffff1602179055508173ffffffffffffffffffffffffffffffffffffffff168173ffffffffffffffffffffffffffffffffffffffff167f8be0079c531659141344cd1fd0a4f28419497f9722a3daafe3b4186f6b6457e060405160405180910390a35050565b6200018c6200021260201b60201c565b600073ffffffffffffffffffffffffffffffffffffffff168173ffffffffffffffffffffffffffffffffffffffff1603620001fe576040517f08c379a0000000000000000000000000000000000000000000000000000000008152600401620001f590620003ef565b60405180910390fd5b6200020f81620000b860201b60201c565b50565b62000222620000b060201b60201c565b73ffffffffffffffffffffffffffffffffffffffff1662000248620002a360201b60201c565b73ffffffffffffffffffffffffffffffffffffffff1614620002a1576040517f08c379a0000000000000000000000000000000000000000000000000000000008152600401620002989062000461565b60405180910390fd5b565b60008060009054906101000a900473ffffffffffffffffffffffffffffffffffffffff16905090565b600080fd5b600073ffffffffffffffffffffffffffffffffffffffff82169050919050565b6000620002fe82620002d1565b9050919050565b6200031081620002f1565b81146200031c57600080fd5b50565b600081519050620003308162000305565b92915050565b6000602082840312156200034f576200034e620002cc565b5b60006200035f848285016200031f565b91505092915050565b600082825260208201905092915050565b7f4f776e61626c653a206e6577206f776e657220697320746865207a65726f206160008201527f6464726573730000000000000000000000000000000000000000000000000000602082015250565b6000620003d760268362000368565b9150620003e48262000379565b604082019050919050565b600060208201905081810360008301526200040a81620003c8565b9050919050565b7f4f776e61626c653a2063616c6c6572206973206e6f7420746865206f776e6572600082015250565b60006200044960208362000368565b9150620004568262000411565b602082019050919050565b600060208201905081810360008301526200047c816200043a565b9050919050565b610a8c80620004936000396000f3fe60806040526004361061008a5760003560e01c80638da5cb5b116100595780638da5cb5b14610156578063b69ef8a814610181578063d0e30db0146101ac578063e06e0e22146101b6578063f2fde38b146101df576100a9565b806328475518146100ae5780632e1a7d4d146100d9578063715018a61461010257806380274db714610119576100a9565b366100a95734600260008282546100a1919061055f565b925050819055005b600080fd5b3480156100ba57600080fd5b506100c3610208565b6040516100d091906105d4565b60405180910390f35b3480156100e557600080fd5b5061010060048036038101906100fb9190610625565b61022e565b005b34801561010e57600080fd5b506101176102de565b005b34801561012557600080fd5b50610140600480360381019061013b91906106b7565b6102f2565b60405161014d919061071d565b60405180910390f35b34801561016257600080fd5b5061016b610300565b60405161017891906105d4565b60405180910390f35b34801561018d57600080fd5b50610196610329565b6040516101a39190610747565b60405180910390f35b6101b461032f565b005b3480156101c257600080fd5b506101dd60048036038101906101d891906107c6565b610352565b005b3480156101eb57600080fd5b506102066004803603810190610201919061087a565b610359565b005b600160009054906101000a900473ffffffffffffffffffffffffffffffffffffffff1681565b6102366103dc565b80600254101561027b576040517f08c379a000000000000000000000000000000000000000000000000000000000815260040161027290610904565b60405180910390fd5b806002600082825461028d9190610924565b925050819055503373ffffffffffffffffffffffffffffffffffffffff166108fc829081150290604051600060405180830381858888f193505050501580156102da573d6000803e3d6000fd5b5050565b6102e66103dc565b6102f0600061045a565b565b60008060001b905092915050565b60008060009054906101000a900473ffffffffffffffffffffffffffffffffffffffff16905090565b60025481565b6103376103dc565b3460026000828254610349919061055f565b92505081905550565b5050505050565b6103616103dc565b600073ffffffffffffffffffffffffffffffffffffffff168173ffffffffffffffffffffffffffffffffffffffff16036103d0576040517f08c379a00000000000000000000000000000000000000000000000000000000081526004016103c7906109ca565b60405180910390fd5b6103d98161045a565b50565b6103e461051e565b73ffffffffffffffffffffffffffffffffffffffff16610402610300565b73ffffffffffffffffffffffffffffffffffffffff1614610458576040517f08c379a000000000000000000000000000000000000000000000000000000000815260040161044f90610a36565b60405180910390fd5b565b60008060009054906101000a900473ffffffffffffffffffffffffffffffffffffffff169050816000806101000a81548173ffffffffffffffffffffffffffffffffffffffff021916908373ffffffffffffffffffffffffffffffffffffffff1602179055508173ffffffffffffffffffffffffffffffffffffffff168173ffffffffffffffffffffffffffffffffffffffff167f8be0079c531659141344cd1fd0a4f28419497f9722a3daafe3b4186f6b6457e060405160405180910390a35050565b600033905090565b6000819050919050565b7f4e487b7100000000000000000000000000000000000000000000000000000000600052601160045260246000fd5b600061056a82610526565b915061057583610526565b925082820190508082111561058d5761058c610530565b5b92915050565b600073ffffffffffffffffffffffffffffffffffffffff82169050919050565b60006105be82610593565b9050919050565b6105ce816105b3565b82525050565b60006020820190506105e960008301846105c5565b92915050565b600080fd5b600080fd5b61060281610526565b811461060d57600080fd5b50565b60008135905061061f816105f9565b92915050565b60006020828403121561063b5761063a6105ef565b5b600061064984828501610610565b91505092915050565b600080fd5b600080fd5b600080fd5b60008083601f84011261067757610676610652565b5b8235905067ffffffffffffffff81111561069457610693610657565b5b6020830191508360018202830111156106b0576106af61065c565b5b9250929050565b600080602083850312156106ce576106cd6105ef565b5b600083013567ffffffffffffffff8111156106ec576106eb6105f4565b5b6106f885828601610661565b92509250509250929050565b6000819050919050565b61071781610704565b82525050565b6000602082019050610732600083018461070e565b92915050565b61074181610526565b82525050565b600060208201905061075c6000830184610738565b92915050565b60008115159050919050565b61077781610762565b811461078257600080fd5b50565b6000813590506107948161076e565b92915050565b6107a381610704565b81146107ae57600080fd5b50565b6000813590506107c08161079a565b92915050565b6000806000806000608086880312156107e2576107e16105ef565b5b600086013567ffffffffffffffff811115610800576107ff6105f4565b5b61080c88828901610661565b9550955050602061081f88828901610785565b935050604061083088828901610610565b9250506060610841888289016107b1565b9150509295509295909350565b610857816105b3565b811461086257600080fd5b50565b6000813590506108748161084e565b92915050565b6000602082840312156108905761088f6105ef565b5b600061089e84828501610865565b91505092915050565b600082825260208201905092915050565b7f496e73756666696369656e742062616c616e6365000000000000000000000000600082015250565b60006108ee6014836108a7565b91506108f9826108b8565b602082019050919050565b6000602082019050818103600083015261091d816108e1565b9050919050565b600061092f82610526565b915061093a83610526565b925082820390508181111561095257610951610530565b5b92915050565b7f4f776e61626c653a206e6577206f776e657220697320746865207a65726f206160008201527f6464726573730000000000000000000000000000000000000000000000000000602082015250565b60006109b46026836108a7565b91506109bf82610958565b604082019050919050565b600060208201905081810360008301526109e3816109a7565b9050919050565b7f4f776e61626c653a2063616c6c6572206973206e6f7420746865206f776e6572600082015250565b6000610a206020836108a7565b9150610a2b826109ea565b602082019050919050565b60006020820190508181036000830152610a4f81610a13565b905091905056fea2646970667358221220a4f567be4660590caf1afb42cd9b7c2d12672a4763f0c24d9170529e5483cd3c64736f6c63430008140033",
  "linkReferences": {},
  "deployedLinkReferences": {}
}